:020000041000EA
:1000000000B5324B212058609868022188439860DF
:10001000D860186158612E4B002199600221596106
:100020000121F02299502B49196001219960352056
:1000300000F044F80222904214D00621196600F024
:1000400034F8196E01211966002018661A6600F04E
:100050002CF8196E196E196E052000F02FF8012189
:100060000842F9D1002199601B49196000215960AB
:100070001A491B48016001219960EB211966A021F2
:10008000196600F012F800219960164914480160C1
:100090000121996001BC002800D000471248134993
:1000A000086003C880F30888084703B5996A0420EC
:1000B0000142FBD001200142F8D103BD02B5186610
:1000C0001866FFF7F2FF186E186E02BD00000240BE
:1000D000000000180000070000035F00212200005C
:1000E000F4000018222000A00001001008ED00E03C
:1000F00000000000000000000000000074B24E7A12
:1001000000200420F7010010C3010010C5010010F9
:10011000C1010010C1010010C1010010C101001097
:10012000C1010010C1010010C1010010C701001081
:10013000C1010010C1010010C9010010CB01001065
:10014000CD010010CD010010CD010010CD01001037
:10015000CD010010CD010010CD010010CD01001027
:10016000CD010010CD010010CD010010CD01001017
:10017000CD010010CD010010CD010010CD01001007
:10018000CD010010CD010010CD010010CD010010F7
:10019000CD010010CD010010CD010010CD010010E7
:1001A000CD010010CD010010CD010010CD010010D7
:1001B000CD010010CD010010CD010010CD010010C7
:1001C00000BE00BE00BE00BE00BE00BEEFF3058054
:1001D000103800BEF2EB88715440061078400610CB
:1001E0003402001090A31AE700201F49086006C8D7
:1001F00081F3088810471D48006800282FD10DA4FE
:100200000ECC002902D000F012F8F9E71849194A7B
:10021000002000E001C19142FCD1174988471749ED
:1002200088471749884700BEFDE701C901C29A42C5
:10023000FBD3704778400610C0000020281800202B
:10024000E05706100000042000000420E0570610CC
:10025000001004200010042000000000704709482E
:1002600006F01CFB0047000008ED00E0000000D095
:1002700048180020E8EA0020E54E0010251D001077
:100280000D5000105756000006005250ABB360539B
:10029000202C021006005250861C0302302C021043
:1002A000060052505422A29D382C021005005250D4
:1002B000DE65F468E0570610F8B5C0460648074901
:1002C000091A8B10C90FC91810B5491003D0044B77
:1002D000002B00D0984710BD2818002028180020B7
:1002E00000000000054B10B5002B03D00449054861
:1002F00000E000BFFFF7E2FF10BDC04600000000B5
:1003000044D5002098210210F0B50D0014008BB0E8
:10031000002A02D01389302B07D020000BF08AFD71
:10032000280011F03DF80BB0F0BD07A90422200011
:10033000083B0BF0ADFE1249124B8C46079A1B6826
:1003400012BA63449B180893002308A809931AF073
:100350004DFE0D4F0168BC46C368049141680B4EC9
:10036000039181680A4A02914169614401910169DE
:100370003000013100911E2106F026FACDE7C0467B
:100380008081557C940F00206C07000024D500204C
:100390009821021010B504001F2102F075FF002201
:1003A0002000002102F088FF0021200003F068F8FF
:1003B00010BDC04610B5080002490CF007FD002032
:1003C00010BDC046691B0010802210B5054CD2003C
:1003D0000021200006F03EFF2000034902F020FD2E
:1003E00010BDC04660E60020840F002010B5064C0A
:1003F000030018222000002102F05EFD20000349C6
:1004000002F00EFD10BDC04660E60020840F002003
:1004100010B5064C030008222000002102F04CFD1C
:100420002000034902F0FCFC10BDC04660E600203D
:10043000840F002070B500291DD0A0220B68104D3C
:100440003021362092002B600BF09EFB041E11D051
:1004500046682F220021701C06F0FCFE1B2333701F
:10046000084B2A00186821007B2310F027FF20008A
:100470000BF0E0FC70BD044806F0C0FFFAE7C04690
:1004800020D500201CD50020BC210210F0B5C646A6
:1004900098462E4B0E00C1184B1E994100B5050021
:1004A00086B040460631170002F0EEFE012331000F
:1004B00042462800009318F0DBFE8023FC1C5B0200
:1004C00002932403FB011C43214B80221C40434622
:1004D00092059B02134305931E4B0520049303943E
:1004E00004F03EFC06F024FE1B49041C0C9806F0A8
:1004F00018FE011C201C06F000FE804606F040FE9F
:1005000084B20023002C0ED0200006F011FE011C46
:10051000404606F0ECFD8721C90506F002FE06F014
:100520002FFEC3B21B0224043A001C43310002AB6D
:100530002800029418F0F0FE0123B3402A68134308
:100540002B6006B080BCB846F0BDC0460000E0AFEE
:10055000FFFFFF9F00000E5000002041F0B5DE4677
:1005600057464E464546E0B5A3B002AD80228246CE
:100570000021280006F06EFE782291461A4B1B4F90
:100580001E0099441A4B143698461A4B9B46340069
:10059000143C042108CC3A0001A806F015F9280003
:1005A0001BF0BEFD01A928181AF0FCFCB44204D0CF
:1005B0000222414606F054FEEBE7143426004C4577
:1005C00004D00222594606F04BFEE0E7421B290008
:1005D0005046013206F044FE23B0F0BCBB46B246A2
:1005E000A946A046F0BDC046E8390020D02102103F
:1005F000D4210210D821021010B50400042102F009
:1006000043FE23075B0F9A00D2180F4B9200D118BC
:1006100000230B608B60CB600C4B0B6140234B6065
:100620003F3B0B600A4923408C46013BD803094BF2
:1006300062449C46C00B13686044184080235B01F1
:100640001343186010BDC04600000540FFFF0000C6
:100650000C0005400000FFFFF8B50C00070705007F
:100660000520160004F07CFB210006F071F97F0FD5
:10067000BC000138114AE419A40003041B0CA218A1
:1006800013610F4B9C46C30364441B0CED0712D54A
:100690000C4F1B04802522686D0153403B402543CD
:1006A00030002B6003F058FE236832201F402F607B
:1006B00003F052FEF8BD044FECE7C04600000540D1
:1006C0000C0005400000FFFFFFFF0000F0B5194ED1
:1006D00083B005001849300018F0E4FC174F0400FF
:1006E000002130003E6018F08BFC154B01001860B3
:1006F000144B2200386800932B00FFF7C7FE00223E
:100700004821114B5A5200211A605A609A60DA60EF
:100710001A615A619A61DA611A625A629A62DA62FD
:100720001A635A639A63DA631A645A644A329954B0
:1007300003B0F0BD00002050C44A021018D50020BC
:100740005CE600200050434904390020124B70B58C
:100750001A68124B12481C68012321000600103150
:100760008B40A4004B361419057851680B42FCD11C
:100770002561457851680B42FCD125618578516827
:100780000B42FCD1033025618642EDD1642000216B
:1007900003F0CEFD70BDC04618D500205CE60020F9
:1007A00004390020F0B5DE4657464E464546E0B5D2
:1007B0008FB0052A0FD8EF4B92009B58EE4A9F4608
:1007C0004B00591803011B1A5B1800219B0099501C
:1007D000D31859609960E94B1B78002B06D10FB0F4
:1007E000F0BCBB46B246A946A046F0BD8022E24B13
:1007F000196C9A5CC9B2D86B09020A43E049C0B2CD
:1008000000040A400243586C12020006120A024316
:100810000092BC22985C083A9A5C00020243D86FAE
:100820000A40C0B200040243986F12020006120A86
:1008300002430192F022985C04329A5C0002024367
:10084000F820185C0A4000040243B8201202120A81
:100850001400185C1A790006044318780294000208
:100860000243187A0A40000402431202120A1500D9
:10087000187C1A7B00060543187D0395000202438D
:10088000D86C0A40C0B2000402431202120A1600D9
:10089000986C1A6D000606438820185CD2B20002DC
:1008A00002438420185C0A40000402438C20120298
:1008B000120A1700C022185C049600060743985CD1
:1008C000043205979A5C00020243C820185C0A4073
:1008D0000004024380204000185C12020006120A45
:1008E0000243D86D06925A6DC0B20002D2B20243E2
:1008F000187F0A40000402431202120A14009022D8
:10090000187E00060443985C04329A5C000202439D
:100910009820185C0A40000402431202120A1500D3
:100920008222986D520000060543985C083A9A5C52
:100930000002024386204000185C0A400004024383
:1009400084201202120A1600D0224000185C07947C
:1009500000060643985C40329A5C00020243CC20B9
:10096000185C0A4000040243D4201202120A170045
:10097000185C1A6A00060743986AD2B2C0B2000235
:100980000243586A0A40C0B200040243D86A120205
:100990000006120A02430B921A6E586ED2B212026D
:1009A000C0B210439A6E0840D2B212041043A02283
:1009B000089509960A979A5C00021206000A1043ED
:1009C000A4229C249A5C1D5D12021543DC229A5CD1
:1009D0000D4012041543D8229A5C2D0212062D0AEE
:1009E00015438C2252009A5C44341C5D120214435D
:1009F0008A2252009A5C0C40120414438E220C90FE
:100A0000186B520083469A5C24021206240A14438F
:100A10005A6F0D9494465A6B5C46914649209A6BE6
:100A2000DE6E9046574A1F6F1454484648241055AE
:100A3000404602341055D6341C5DFFB22402A14654
:100A40009224484664001C5D3F02204394240840E1
:100A5000804664001C5DF6B2240420004446204316
:100A6000E8241C5D36042406A14604024846240AF4
:100A70002043804602981060019850600098906072
:100A80000398D060049855631061059850610698EA
:100A900090610998D0610A9810620898506207988E
:100AA00090620B98D0620C9810630D98906340464A
:100AB000D063EC201C5C0838185C24022043AC2472
:100AC0000140A8201C5D185C240421430902000693
:100AD000090A01431164B0215B5C61463B43334327
:100AE0001B0209061B0A0B435364FFF72FFE76E631
:100AF0004B00591803011B1A5B1800219B009950E9
:100B0000D31802225A609A6065E64B005918030117
:100B10001B1A5B1800219B009950D3180222996080
:100B20005A6058E64B00591803011B1A5B18022142
:100B30009B009950D31800225A609A604BE64B00F4
:100B4000591803011B1A5B1802219B009950D318F6
:100B5000002299605A603EE64B00591803011B1AA7
:100B60005B1802219B009950D318002259609A60AB
:100B700031E6C0461C4A02104C3A0020990F002072
:100B8000FFFF00FF04390020F0B5254C83B020683A
:100B9000002801D010F004FC10F020FC2060002898
:100BA00039D000221F4910F0F5FB1F4B002001A98E
:100BB000019309F097FE1D4D002329001C4A1D4892
:100BC0000AF032FA002807D005301FD11A4806F083
:100BD00015FC1A4803B0F0BDA02230219200363037
:100BE0000AF0D2FF061EF4D047682F220021781C9D
:100BF00006F030FB1B233B702A0031002068603375
:100C000010F05CFB30000BF015F9E2E70C4806F041
:100C1000F5FB0020DEE70B4806F0F0FB0020D9E7EB
:100C20001CD50020090300100808080820D5002062
:100C300035040010F42102100422021024D50020F3
:100C400024220210DC2102103A4B70B51B780500FB
:100C50000C00002B45D18323DB009D4234DB364B57
:100C60009D4214DC8323DB009C4220DB324B9C4200
:100C700000DC70BD314806F0C1FB314B1968032917
:100C800051DC01312F48196006F0AAFCF1E72E482B
:100C900006F0B4FB2D4B196803293DDC01312948CE
:100CA000196006F09DFC8323DB009C42DEDA2848B5
:100CB00006F0A4FB224B1968002926DD01392148E2
:100CC000196006F08DFCD4E7224806F097FB1F4B15
:100CD0001968002912DD01391A48196006F080FCF4
:100CE000C0E7174B1C4A1868184B196883001B187B
:100CF0005B189B009A58FFF755FDACE7012111489E
:100D00000139196006F06CFCACE701210D4801398E
:100D1000196006F065FCACE703210A48013119604F
:100D200006F05EFCBFE7032106480131196006F0BA
:100D300057FC9EE7990F0020E80B00005822021094
:100D4000900F0020D0210210782202108C0F00207A
:100D50003822021094220210783B0020F0B5DE46C3
:100D600057464E464546E0B5DB4895B006F046FB93
:100D70000123DA4A147811925C40147000D1BFE16B
:100D8000D74CD84B20003022002102F095F82000EB
:100D90000024D54902F044F8D44ED54D01943400D6
:100DA0002E00D44B99460293D34B1293D34B1393FB
:100DB0000023A8461F00029ABB00D358052B08D871
:100DC000129A9B00D3589F4600232B6002336B601E
:100DD000AB60119B1B78002B1FD1BA4645467A1C8D
:100DE000042F00D1C6E1484601998B005918891893
:100DF00089004158052900D94BE3139889004158CF
:100E00005000019F80188F4602232B606B600023E7
:100E1000AB60119B1B78002BDFD08023316CF35C1F
:100E2000F26BC9B209020B43D2B2716C120409060B
:100E300013430B430393B423F15C0833F25CF36F69
:100E400012021143DBB2B26F1B0412060B431343B1
:100E50000493F423F15C043BF25C0833F35C12026C
:100E60001143B8221B040B431900B25C337A1206FB
:100E7000114332780591317912021143327C1B04FF
:100E800012060B4313430693327DF36C317B12023F
:100E9000DBB211431B040B4319008823B26C0137EA
:100EA000120611430791326DF15C043BF35C0902B9
:100EB000D2B20A438C211B0413431A00C423715C71
:100EC00009060A43F15C043B0892F25C0833120203
:100ED00011438022F35C5200B25C1B0412060B43E8
:100EE000F16D1343726D0993C9B2337F0902D2B217
:100EF0000A431B0413431A009423317E09060A4354
:100F0000F15C043B0A92F25C0833F35C1202114379
:100F10001B040B431900FC23B26D120611430B9105
:100F2000F15C0833F25C0833120211438422F35C53
:100F30005200B25C1B0412060B4313430C9388232C
:100F40005B00F15C403BF25C043BF35C120211433A
:100F5000D4221B040B431900B25C736A12061143BE
:100F60000D91B16A326AC9B20902D2B2DBB20A4348
:100F70001B0413431A00F16AB36E09060A43316E6B
:100F80000E92726EC9B20902D2B20A43DBB2A0213C
:100F90001B0413431A009C23715C09060A430F9239
:100FA000F15C0833F25C383312021143D822F35C4F
:100FB000B25C1B0412060B4313439C46E0238A21B8
:100FC000F25C3833F35C49001B021A438E23705CD9
:100FD000316B5B008A46F35C00041B061043184328
:100FE000492110905046726B6054013962544A2274
:100FF000B36BA354B023326FF15CD2B2F36E120222
:101000001143DBB2726F1B0412060B431343E4223D
:10101000B25C9246EC225046B15C403A0902084369
:10102000A821B25C715C1204090602430A439221B2
:1010300094204900715C40008A469021305C490050
:10104000000483465046715C09020143E820305C8D
:1010500000068246584601435046014305982060E9
:10106000049860600398A0600698E163E0600798C8
:10107000226420610898636460610998A0610C98FB
:10108000E0610D9820620B9860620A98A0620E9849
:10109000E0620F982063604660631098A063FFF7DA
:1010A00055FB052F65D00C3585E6022300222B6009
:1010B0006A60AB608DE602232B6000236B60AB603F
:1010C00087E600232B606B60AB6082E60023022280
:1010D0002B606A60AB607CE6B0220210990F0020A2
:1010E00060E60020D0220210840F00200439002086
:1010F0004C3A0020783B0020344A02104C4A02103F
:10110000EC4D3022EC4B0021280001F0D5FE2800E8
:10111000EA4901F085FE48220021E94BE9489C524A
:1011200002329954E23200211C605C609C60DC60F9
:101130001C615C619C61DC611C625C629C62DC62C3
:101140001C635C639C63DC631C645C6406F082F873
:10115000FFF7FCFAD02380221B0612019A6180223D
:1011600092019A6115B0F0BCBB46B246A946A046B2
:10117000F0BD4546019B029A0133143201933C3580
:101180000292052B00D013E635008023296CEA6B10
:10119000C9B20802E95CD2B20843696C12040906BC
:1011A00002430A430492BC22B421AA5C26006C5C70
:1011B00012021443EA6FC44BD2B212041C4014430F
:1011C000AA6F24021206240A1443F0224031A85CBC
:1011D0006A5C00021043F822A95CB82288271840F4
:1011E0000904AA5C014309021206090A11432A787C
:1011F0002879120210432A7A1840120410432A7CDC
:1012000000021206000A10432A7D0691297B120271
:101210001143EA6C1940D2B212041143AA6C0902BC
:101220001206090AEF5D11432A6D3F02D2B23A431A
:101230008427EF5D1A403F043A438C27EF5D12028A
:101240003F06120A3A43C027EF5D07903F02BC46B3
:10125000C4276046EF5D05940743C820285C1F4003
:101260000004074380204000285C3F023F0A00063C
:10127000384382466F6DE86DFFB2C0B2000207438B
:10128000287F1F4000040743287E3F023F0A0006D4
:1012900038439027EF5D08903F02BC469427604694
:1012A000EF5D07439820285C1F4000040743A86DAA
:1012B0003F023F0A0006384382277F00EF5D099016
:1012C0003F02BC46FC276046EF5D07438620400096
:1012D000285C1F400004074384204000285C3F0234
:1012E0003F0A00063843D027EF5D83463F02BC46E5
:1012F000882760467F00EF5D0743CC20285C1F40B5
:1013000000040743D420285C3F023F0A000638430C
:101310000A90A86A2F6AC0B20002FFB20743686A47
:101320001F40C0B200040743E86A3F023F0A0006BC
:1013300038430B90286E6F6EC0B20002FFB20743B5
:10134000A86E1F40C0B200040743A020285C3F02E3
:101350003F0A00063843A427EF5D0C903F02BC46CD
:101360009C276046EF5D0743DC20285C1F4000049B
:101370000743D820285C3F023F0A000638438C27E9
:101380007F00EF5D0D903F02BC46E0276046EF5DB9
:10139000316107438A204000285C1F400004074356
:1013A0008E204000285C3F023F0A000638430E9022
:1013B000286B6F6F814603972F6F4C460297EF6E35
:1013C000492001976F6B3454BC4648246046AF6B8C
:1013D00030550234375590277F00EF5D06983C0268
:1013E00092277F00EF5D30602743942464002C5DDA
:1013F0001F4024042743E8242C5D3F0224063F0AB3
:101400002743059C07987460049CF060B460726187
:10141000099A0A997262EC223162A95C083AAA5CC4
:1014200009020A43AC211340A822695CAA5C0904A2
:101430000B431B0212061B0A134333646B461A7AD2
:10144000B0235446EB5C120213436A46B4615C4617
:1014500008981279B0620B981204F0620C98F76346
:101460003063039F0D9813431B0270633A060E9876
:101470001B0A1343F461B0637364FFF767F971E605
:101480003901C91B09180020890070507118486083
:1014900088605146881C032900D16BE64F460199AC
:1014A000591809188900795805291DD8074F89004E
:1014B00079588F4660E60020E0220210840F002059
:1014C000043900204C3A0020FFFF00FF644A02105C
:1014D000019F410008183901C91B09180020890023
:1014E00070507118486088605146C81C022900D1AC
:1014F00040E64F460199591809188900795805297D
:101500000FD88F4F890079588F46019F41000818E6
:101510003901C91B091800208900705071184860F2
:101520008860012A00D025E6019A944663449B0016
:101530004B441B69052B00D91CE6824A9B00D358FB
:10154000019A9F463901C91B091800208900705073
:1015500071180230486088609BE73901C91B09187F
:10156000022089007050711848600020886090E760
:101570003901C91B09180220002789007050711811
:101580004F60886085E73901C91B0918022089006E
:10159000705000207118486088607AE73901C91BD3
:1015A0000918002002278900705071184F60886068
:1015B0006FE7019F410008183901C91B0918002075
:1015C0008900705071180230486088608CE7019F74
:1015D000410008183901C91B091800200227890099
:1015E000705071184F6088607EE7019F41000818B5
:1015F0003901C91B09180220890070500020711898
:101600004860886070E7019F410008183901C91BD4
:101610000918022000278900705071184F608860F7
:1016200062E7019F410008183901C91B091802200F
:1016300089007050711848600020886054E7019F4D
:10164000410008183901C91B091800208900705091
:10165000711802304860886063E7019F41000818F4
:101660003901C91B09180020022789007050711820
:101670004F60886055E7019F410008183901C91B78
:101680000918022089007050002071184860886095
:1016900047E7019F410008183901C91B09180220BA
:1016A00000278900705071184F60886039E7019FEA
:1016B000410008183901C91B09180220890070501F
:1016C00071184860002088602BE713019B1A0221E3
:1016D00000229B00F3181A6359639A634AE51301C9
:1016E0009B1A00229B00F3181A6302325A639A6312
:1016F00040E513019B1A00229B00F3181A635A63FA
:101700009A6337E513019B1A02229B00F3181A63B0
:1017100000225A639A632DE513019B1A00210222CD
:101720009B00F3181A6359639A6323E513019B1A0C
:1017300002229B00F3181A635A6300229A6319E588
:101740007C4A0210944A021010B5162804D00528CD
:1017500005D0062818D010BDFFF700FBFBE71048A6
:1017600005F04CFE0F4B1B78002BF4D00E4B0F49AD
:101770001A680F4B186893009B181B189B005A5847
:10178000504242415A50E6E70A4805F037FE01212F
:10179000044A094813784B40137005F02FFEDAE72E
:1017A000F0220210DFEA0020900F0020E83900202C
:1017B0008C0F00200823021020230210F0B5264CC5
:1017C00007000D00254B2022002120008FB001F0E2
:1017D00073FB234E2000310001F022FB962078435A
:1017E0002901491B1F4B49000818C7181B5C002B17
:1017F0000BD11D4B28222000002101F05DFB3100A0
:10180000200001F00DFB0FB0F0BD06AD102200214D
:1018100002A805F01FFD10220021280005F01AFD86
:10182000390008220B3102A819F054F905223900B9
:10183000280019F04FF9102200210AA805F00AFD2E
:1018400002AB1021094A00950AA804F0BDFF0AA8BE
:1018500005F0D4FD0AABCDE760E60020302302108E
:10186000840F0020E031002040230210502302109A
:10187000F0B5D6464F464646C0B505221949C4B014
:10188000070005F0EDFC184B04269946174B9846C7
:10189000174B9A464D4600242B682200414602937E
:1018A00000943300019604A804F078FF38001AF081
:1018B00037FC0134381804A919F074FB1435052CD1
:1018C000EAD10622514605F0CBFC04235B429C463C
:1018D000E144013EDED244B0E0BCBA46B146A8467F
:1018E000F0BDC04668230210F839002070230210B2
:1018F000B4230210F0B5C64600B5874C0D00A544D0
:101900008649040019F090FA85490600200019F074
:101910008BFA041E0CD004342021200019F03EF86C
:10192000002801D00023037021007E4805F058FEF6
:1019300020007D491AF0A8FB002826D1002E35D0C2
:1019400008AC2000FEF70AFE20001AF0E9FB0300B5
:10195000822080210001754A0094C900684404F087
:1019600033FF82231B016B4418001AF0D9FB0123BB
:1019700082B282210901280069440DF0C1FEC12311
:101980005B019D4480BCB846F0BD05AB00932000D0
:10199000674904AB03AA18F059FF03282DD007228A
:1019A0002000644919F05CF800280DD008A8FFF762
:1019B0005FFF82208021604B00011A68490108AB5B
:1019C000684404F001FFCCE708AB009320005B49BA
:1019D00007AB06AA18F03AFF032865D082231B0143
:1019E0006B441800FFF744FF534B80211A68822391
:1019F0001B016B4418000901E3E7039B042B48D843
:101A0000049A042A45D80599052942D89C00E31870
:101A10004B489B189B001950002956D0012973D0C0
:101A2000FFF7B2F8039B962798464246049C7A43F8
:101A300023011B1B434E5B009B1801001E229819BB
:101A400019F048F82100059A4046FEF7ABFE049BCA
:101A50001801C01A039B40007B43C018801905F091
:101A6000CDFC0399049A4F431401A41A6400E419AD
:101A7000A419059B3448009405F0B2FD82231B0194
:101A80006B443D221800314905F0EAFB01233C225A
:101A90006FE782231B016B44552218002C4905F087
:101AA000DFFB0123542264E70699042996D8079A9C
:101AB000042A93D888004018089B264C8018800080
:101AC0000351254805F08CFD88E7052003F048F90F
:101AD000DC2104F03DFF0138204A0304204C1B0C9C
:101AE0009363226843081B0453401E4E1B0C1B04C7
:101AF0003360642002F030FC236832201B0C1B048E
:101B0000336002F029FC8BE72C31FA221520FF31DB
:101B1000FEF7A2FD84E7C046E0E7FFFF582302106E
:101B2000BC230210C4230210E0230210E823021099
:101B3000402402107C240210800F00208424021014
:101B4000783B0020E03100204C240210C024021019
:101B500000250210E83900209424021000000540FE
:101B6000340005403410054010B5141E07D05068ED
:101B7000FFF7C0FE20000AF05DF9002010BD08004C
:101B80000BF042FDF9E7C046F0B5514E514F8FB012
:101B90004CE0380005F032FC80224F4CD20000218E
:101BA000200005F057FB4D4D2000290001F038F9C9
:101BB00008224B4B0021200001F07EF92900200073
:101BC00001F02EF91022474B0021200001F074F99A
:101BD0002900200001F024F91822434B00212000A5
:101BE00001F06AF92900200001F01AF920223F4B88
:101BF0000021200001F060F92900200001F010F917
:101C000028223B4B0021200001F056F9290020003A
:101C100001F006F937493848384B394A13F096F93C
:101C200000280BD0FA20C00002F096FB0021300003
:101C300016F042FD0328ACD10FB0F0BD314805F0DD
:101C4000DDFB314B30220021200001F035F9290065
:101C5000200001F0E5F8FA20800002F07DFB8022F0
:101C60000021D200200005F0F5FA2900200001F043
:101C7000D7F8FEF789FF00281FD006AB029307AB09
:101C800005AC01930AAB2149009308AA09AB039460
:101C900018F0DCFD1E4A0A9B944663440A93099B94
:101CA0002000013B099319F08DFC1A4B1860596014
:101CB000194B9A6A194B1A60BEE72000382200219E
:101CC000174B01F0F9F82900200001F0A9F8B3E75B
:101CD000042300205825021060E60020840F002015
:101CE0008425021094250210A0250210AC250210B4
:101CF000BC250210C8250210D825021010270000AC
:101D000004004000F02502100826021014260210DC
:101D100094F8FFFFC81A002000400540FC3800205E
:101D200028260210F0B5DE464E4645465746E0B539
:101D3000CDB005F061FC17F0BDFE0720FEF7C6FC34
:101D40001520FEF759FC0D2001F0AEFBD0248023B6
:101D500024069B0163620B2001F0A6FB80231B017C
:101D6000636280235B0163621B20FEF713FB1A2072
:101D7000FEF710FB162001F097FB8023DB03A36224
:101D800000220121162001F097FA052001F08CFBBA
:101D900020230022A3620121052001F08DFADF4DEE
:101DA00001222B000421052001F0D6FA062001F0C3
:101DB0007BFB40230022A3620121062001F07CFA74
:101DC0002B0001220421062001F0C6FAD449D5488F
:101DD00017F0EEFE03210E2001F056FA03210F202A
:101DE00001F052FA002201210E2001F065FA0022D2
:101DF00001210F2001F060FA00F0E6FFCA4B180045
:101E00001C00994600F0D4FFC84B80229B46180066
:101E1000D200002105F01EFA2100584601F000F81A
:101E2000C348FEF7F5FAFA20C00002F095FA13F065
:101E3000EFF8002801D000F08BFF13F079F8FEF7DF
:101E4000C3FABC4805F0DAFABB48FEF7E1FABB4E2C
:101E50005F46B046BA4D4E46BA4C0FE0404605F0DC
:101E6000CDFA102200213800B74B01F025F83800D8
:101E7000310000F0D5FF642002F06EFA2900200046
:101E8000B24BB34A13F062F80028E7D1B14805F02D
:101E9000B5FAB14CB148B24B205CB24AE35CA25CEB
:101EA0000190B1480E94205C4C46B04900903BA88C
:101EB00004F074FC3BA9AE4805F092FB1022AD4B38
:101EC0000021380000F0F8FF2100380000F0A8FFE2
:101ED0003BA8FEF78BFAA84802F03EFAFEF774FA28
:101EE000A64805F08BFAA648FEF792FA1022A54BF9
:101EF0000021380000F0E0FF2100380000F090FFE2
:101F00000BF0BAF9BB46041E01D100F03FFF50228E
:101F10009D490AF04BFB002801D000F027FFFF216C
:101F200020000AF0BDFB99490AF05EFF984805F0D1
:101F300065FAFEF729FE9748FEF758FAFA20800066
:101F400002F00AFAFEF740FAFEF71EFE002801D161
:101F500000F011FF43AB039344AB029345AB0193F5
:101F600048AB8D49009346AA47AB18F06FFC8B4AEB
:101F7000489B944663444893479B43A8013B47933F
:101F800019F020FB864B874F9A6A9B6A0F92129337
:101F90000123099380231B0121932093824B0C90F2
:101FA0001093824B0D911193814B4E461993814BA7
:101FB0005C461A93804B1B93804B1C93804B1D9364
:101FC000804B9A46804B0B93804B0A93804B18931F
:101FD000804D814B814A98461392814A079714920B
:101FE000804A1F92804A1792804A1692804A26920F
:101FF000804A2792804A2892804A2992804A2492D5
:10200000804A2592804A159200210E9816F054FBC2
:10201000032801D0FFF7B8FD614B0122996AD02354
:102020001B065B6808919B0D134053409B460F9B1A
:102030009146C81A754904F08BFC0023049005935F
:102040000C980D99049A059B12184B4136A83692AC
:10205000379319F0B3F8026883680192426820212F
:10206000009243A8109A04F0AFFB43AB3822002142
:10207000200000F021FF3100200000F0D1FE119B74
:102080001B78002B00D114E10A9B1B78002B00D099
:1020900070E10822139B0021200000F00DFF3100A9
:1020A000200000F0BDFE5346079F19683868FFF70F
:1020B00085FB3A6893009B18524612689B18149A45
:1020C0009B00D358012B00D13AE1179B1822002125
:1020D000200000F0F1FE3100200000F0A1FE0A9B7C
:1020E0001B78002B07D08023D0221B01120693619E
:1020F00080239B015361079B0B981A6853461B680A
:1021000091009C468918614489004158052900D9ED
:1021100084E01698890041588F46C0464917001040
:10212000801A0600D0100020840F002060E60020F6
:102130003C260210742602108C260210A0260210E3
:10214000C8250210D8250210CC2602101027000046
:1021500004004000D826021004230020EB080000F1
:10216000E9080000E8080000EA080000EC26021078
:10217000F82602100C270210B80B00001C270210D2
:1021800034270210402702104C540210B5030010EF
:102190008C270210B4270210B827021094F8FFFF12
:1021A00000400540900F0020CC270210DFEA0020FD
:1021B000E4270210F4270210042802101428021049
:1021C000242802108C0F0020783B0020990F00205B
:1021D000980F00204C3A00200439002034280210C7
:1021E000E83900204428021054280210AC4A02109A
:1021F00064280210702802107C280210882802101F
:1022000094280210A0280210AC28021040420F00AF
:10221000299838A988C888C10078087038A9634609
:1022200000913FA8159904F0B9FA10223FAB0021A4
:10223000200000F041FE3100200000F0F1FD129A74
:10224000089B9B1A4A4A934200D924E25B46002B22
:1022500004D0099B002B01D1FEF780FD12F0CCFECB
:10226000322002F079F85B460993CDE6249838A92C
:1022700088C888C100780870D0E7289838A988C82D
:1022800088C100780870C9E7279838A988C888C12C
:1022900000780870C2E7269838A988C888C10078F5
:1022A0000870BBE7259838A988C888C100780870ED
:1022B000B4E7199B08222000002100F0FDFD310049
:1022C000200000F0ADFD1A9B10222000002100F03C
:1022D000F3FD3100200000F0A3FD1B9B182220001D
:1022E000002100F0E9FD3100200000F099FD1C9B69
:1022F00020222000002100F0DFFD3100200000F04E
:102300008FFD1D9B28222000002100F0D5FD31000B
:10231000200000F085FD8023D0221B01120693616E
:1023200080239B019361079B0B9A18685346196899
:1023300083001B185B189B00D258FEF733FA85E721
:102340001F9B18220021200000F0B6FD3100200064
:1023500000F066FD0A9B1B78002B00D1CBE68023A2
:10236000D0221B011206536180239B019361C2E6B8
:102370003F0D0300079B0B9A1868534619688300AA
:102380001B185B189B00D258189B1E921B78002AC2
:1023900000D1E3E1002B00D15BE34B0059180301AE
:1023A0001B1A5B189B000499059AEA50EB185A60B7
:1023B0009A608023286CEA5CE96BC0B20002024399
:1023C000C9B2686C090400060A4302431E92BC228B
:1023D000A95C083AAA5C09020A43E96FDA4BC9B260
:1023E00009041A400A43A96F12020906120A0A4395
:1023F0002292F022A95C0432AA5C09020A43F82165
:10240000695C1A4009040A43B821695C1202090692
:10241000120A0A43297823922A7909020A43297A5F
:102420001A4009040A43297C12020906120A0A43C7
:10243000297D2A922A7B09020A43E96C1A40C9B213
:1024400009040A43A96C12020906120A0A438821E8
:102450002B92695C2A6D0902D2B20A438421695C1D
:102460001A4009040A438C21695C12020906120A07
:102470000A432C92C022A95C0432AA5C09020A43D6
:10248000C821695C1A4009040A4380214900695C3B
:1024900012020906120A0A43E96D2D926A6DC9B249
:1024A0000902D2B20A43297F1A4009040A43297E4D
:1024B00012020906120A0A432E929022A95C0432E3
:1024C000AA5C09020A439821695C1A4009040A437C
:1024D000A96D12020906120A0A432F9282225200A3
:1024E000A95C083AAA5C09020A4386214900695C92
:1024F0001A4009040A4384214900695C1202090652
:10250000120A0A433092D022A95C4032AA5C090226
:102510000A43CC21695C1A4009040A43D421695C4E
:1025200012020906120A0A43A96A31922A6AC9B23A
:102530000902D2B20A43696A1A40C9B209040A43BD
:10254000E96A12020906120A0A4332926A6E296E79
:10255000D2B2C9B209020A43A96E1A40C9B209042B
:102560000A43A021695C12020906120A0A43339247
:10257000A422A95C083AAA5C09020A43DC21695C2E
:102580001A4009040A43D821695C12020906120A9A
:102590000A4334928C225200A95C383AAA5C0902A0
:1025A0000A438A214900695C1A4009046F6B0A4397
:1025B0008E2135972F6B4900BC46695C12020906D3
:1025C000120A0A4349206146474639544146359F1D
:1025D00001380F5447464A219146AA6B7A54B022DB
:1025E000296FAA5CC9B209020A43E96E1A40C9B24E
:1025F00009040A43696F12020906120A0A43EC2110
:10260000685C0839695C00020143AC201940A823CA
:10261000285C00040143E85C0B02000690211B0AC1
:10262000034392204900695C4000285C090208438A
:1026300094214900695C09040143E820285C0902EF
:102640000006090A014323983860229878601E9892
:10265000B8602A98F8602B9838612C9878612D988A
:10266000B8613098F861319838622F9878622E9866
:10267000B8623298F8623398386334987863404689
:102680004F46C163876303644264FEF75FF800232B
:10269000189A1370FDE4E0212C4AC9011368079FC2
:1026A0000B402B490B6004212A4B1960FC31136845
:1026B0000B42FCD0536812681B041B0C9946802304
:1026C0005B015340E022D2011340214A8021136074
:1026D0000422204B49001A601C4A13680B42FCD0AC
:1026E000536807971B04190C1B4B4B44DA179B18B4
:1026F0005340C82B0BDC184A0B0094466344DA178E
:102700009B185340089A1292C82B00DC9EE54B465A
:10271000209A9B1ADA179B185340C82B09DC219A80
:102720008B1ADA179B185340089A1292C82B00DCB8
:102730008CE548460F00FEF787FA089B2197129315
:102740004B46209382E5C046FFFF00FF00C00440D7
:1027500000D0044000E0044000F8FFFF2A782292F5
:102760002A7923924A00002B00D17BE103011B1A36
:10277000484652189B189B00EB1898602B7A2A6CDD
:1027800099468023E96BE85CD2B212021043C9B2C9
:102790006A6C0904120608431043BC22A95C083A7B
:1027A000AA5C09020A43E96FAD4BC9B209041A4099
:1027B0000A43A96F12020906120A0A43F021695C52
:1027C0000F02F421695C3943F827EF5D19403F049B
:1027D0003943B827EF5D09023F06090A39434746E6
:1027E000396022997A60239A09020A4311004A4605
:1027F000B86010042A7C0143120611432291297DFE
:102800002A7B09020A43E96C1A40C9B209040A4347
:10281000A96C12020906120A0A4388212392695CF4
:102820002A6D0902D2B20A438421695C1A40090464
:102830000A438C21695C12020906120A0A432A9291
:10284000C022A95C0432AA5C09020A43C821695C5F
:102850001A4009040A4380214900695C12020906F2
:10286000120A0A43E96D2B926A6DC9B20902D2B20B
:102870000A43297F1A4009040A43297E12020906E5
:10288000120A0A432C929022A95C0432AA5C090223
:102890000A439821695C1A4009040A43A96D12028F
:1028A0000906120A0A432D9282225200A95C083AB4
:1028B000AA5C09020A4386214900695C1A4009049E
:1028C0000A4384214900695C12020906120A0A437C
:1028D0002E92D022A95C4032AA5C09020A43CC2184
:1028E000695C1A4009040A43D421695C1202090692
:1028F000120A0A43A96A2F922A6AC9B20902D2B2FD
:102900000A43696A1A40C9B209040A43E96A120211
:102910000906120A0A43296E30926A6EC9B2090288
:10292000D2B20A43A96E1A40C9B209040A43A021CF
:10293000695C12020906120A0A433192A422A95CB8
:10294000083AAA5C09020A43DC21695C1A400904BE
:102950000A43D821695C12020906120A0A43914609
:102960008C225200A95C383AAA5C09020A438A21E7
:102970004900695C1A4009040A438E212F6B490003
:10298000BC46695C12020906120A0A43696B474693
:1029900033914920614639543399013839544A21D9
:1029A0003292AA6B7A54B022296FAA5CC9B209028A
:1029B0000A43E96E1A40C9B209040A43696F120258
:1029C0000906120A0A43EC21685C0839695C0002B6
:1029D0000143AC201940A823285C00040143E85CB3
:1029E0000B02000690211B0A034392204900695CF8
:1029F0004000285C0902084394214900695C0904ED
:102A00000143E820285C09020006090A01432298D4
:102A1000F86023983B6438612A987A6478612B982F
:102A2000F963B8612E98F8612F9838622D98786212
:102A30002C98B8623098F8623198386348467863C9
:102A40003298B863FDF782FE189B1E9A1A70FFF742
:102A500020FBFDF7A7FE4A46189B1A70FFF719FBEB
:102A6000FFFF00FF51180201121A52189200AA1813
:102A7000936080232A6CE85CE96BD2B212021043A7
:102A8000C9B26A6C0904120608431043BC22A95C4F
:102A9000083AAA5C09020A43E96FBF4BC9B20904AC
:102AA0001A400A43A96F12020906120A0A43F021CA
:102AB000695C1E9209028C46F4216246695C2F7A99
:102AC0001143F822AA5C194012041143B822AA5CEF
:102AD00009021206090A1143424611601E999060CC
:102AE0005160229A2399120211430A00297C38046A
:102AF000090602430A43297D1E922A7B09020A43E2
:102B0000E96C1A40C9B209040A43A96C1202090609
:102B1000120A0A4388212292695C2A6D0902D2B204
:102B20000A438421695C1A4009040A438C21695CC8
:102B300012020906120A0A432392C022A95C043237
:102B4000AA5C09020A43C821695C1A4009040A43C5
:102B500080214900695C12020906120A0A43E96DE4
:102B60002A926A6DC9B20902D2B20A43297F1A4079
:102B700009040A43297E12020906120A0A432B920B
:102B80009022A95C0432AA5C09020A439821695C7C
:102B90001A4009040A43A96D12020906120A0A43DF
:102BA0002C9282225200A95C083AAA5C09020A43CC
:102BB00086214900695C1A4009040A4384214900BE
:102BC000695C12020906120A0A432D92D022A95CFE
:102BD0004032AA5C09020A43CC21695C1A4009040C
:102BE0000A43D421695C12020906120A0A43A96A3F
:102BF0002E922A6AC9B20902D2B20A43696A1A40FD
:102C0000C9B209040A43E96A12020906120A0A4310
:102C1000296E2F926A6EC9B20902D2B20A43A96E16
:102C20001A40C9B209040A43A021695C12020906CC
:102C3000120A0A433092A422A95C083AAA5C09024B
:102C40000A43DC21695C1A4009040A43D821695C03
:102C500012020906120A0A4331928C225200A95C20
:102C6000383AAA5C09020A438A214900695C1A4081
:102C700009046F6B0A438E2133972F6B4900BC46C2
:102C8000695C12020906120A0A4349206146474656
:102C900039544146339F01380F5447464A213292F6
:102CA000AA6B7A54B022296FAA5CC9B209020A43FE
:102CB000E96E1A40C9B209040A43696F1202090693
:102CC000120A0A43EC21685C0839695C000201437E
:102CD000AC201940A823285C00040143E85C0B02E7
:102CE000000690211B0A034392204900695C4000C2
:102CF000285C0902084394214900695C09040143E6
:102D0000E820285C09020006090A01431E983B647A
:102D1000F86022987A6438612398F96378612A9878
:102D2000B8612D98F8612E9838622C9878622B98AB
:102D3000B8622F98F8623098386331987863329887
:102D4000B863FDF703FD4A46189B1A70FFF7A1F917
:102D5000124804F053FB1248FDF748FB01204DB028
:102D6000F0BCBB46B246A946A046F0BD0D4804F0F3
:102D700045FBFFF7DEF80100382258460A4B00F009
:102D80009BF84946584600F04BF8E7E7074804F03F
:102D900035FBFFF7CEF8C046FFFF00FF48260210C4
:102DA0006426021064270210282602105027021001
:102DB000037842788178D21AC37801325B1A0133E2
:102DC000534343607047C046F0B54746CE4680B592
:102DD0008BB003AC2200104B802723CB23C223CB24
:102DE00023C21B880026138026236B4499460B4B75
:102DF00002AD984623782F706B702A0002233C2185
:102E000040460096013416F0FBFE4C45F2D10BB063
:102E1000C0BCB946B046F0BDB44D0210D010002081
:102E2000F0B557464E464546DE462123E0B587B00D
:102E300004AC23700B78834663704B788A46A3708A
:102E40002223E3704B880027A38016236B44994606
:102E500080239846174E03AD424623782A706B7044
:102E60002A0002233C2130000097013416F0C8FEEE
:102E70004C45F1D153465B685D1C2800984604F030
:102E8000B9F940230400424659460370013004F06A
:102E9000E7F92B0022003C213000009716F0B0FE2D
:102EA000200004F0CBF907B0F0BCBB46B246A946FF
:102EB000A046F0BDD0100020F0B5DE4657464E4685
:102EC0004546E0B585B0782949DC382A47DC1D78CD
:102ED000002D44D00724D6173440A418E410E40190
:102EE000A346534A0292534A03920133782931DCB4
:102EF0000326029A2C00525D3240022A01D1203C66
:102F0000E5B2213DEDB25B2D30D8039AAD005259A8
:102F10009746403C484AE400155D12195478AA4689
:102F2000A14694785779A046D4789679A446147926
:102F3000D57901945A4654468A1884544C468218CE
:102F40005470444694706446D470019C5771147157
:102F50009671D5711D78083109B2002DC5D105B023
:102F6000F0BCBB46B246A946A046F0BD00250022F3
:102F70000026002794469046914692460192D9E752
:102F8000153CC7E7002200250026002701927F326A
:102F900094460022904691469246CBE71022019239
:102FA000083A9446043A9046013A91460022002598
:102FB000002660279246BDE71822019220329446EF
:102FC000203A9046103A9146002200250026082714
:102FD0009246AFE7042201920432944608329046AA
:102FE0005032914600220025002603279246A1E791
:102FF0004025BCE708229446904691460192002263
:10300000002500260827924694E700220025019219
:10301000002600275F32BBE7002201923632944639
:10302000904600220025002600279146924681E71F
:1030300001CA0510D44A0210444C0210D0231B06CA
:103040001B688D4A9900F0B54E46894651585A4240
:1030500053412F2257464546DE465B4293439846EE
:10306000864BE0B59C4683B000270191E0440029DF
:1030700035D0834B0F269B464246FB0808339B0006
:103080009C5801233D009A460837002C1ED0310081
:103090002140264214D05B464A469A585346AB40DC
:1030A0001A420DD1072208002A40920090400200E7
:1030B000EB0874483C339B001A502800019B98474A
:1030C00024090135002C01D0BD42E0D3202FD3D1FB
:1030D00003B0F0BCBB46B246A946A046F0BD684B63
:1030E00000210F229B460124CD082B0040460833C7
:1030F0009B001B5808000831002B00D19DE01700F1
:103100001F40BC461A420BD05F464E46BE592700B0
:1031100087403E4204D166465A4F3C35AD00EE51E1
:103120001D0900D189E017002F402A4211D0260046
:10313000451CAE400195B4465D464E46AE596546C7
:103140002E4206D1019D4F4EED083C353F01AD00AA
:10315000AF511D0A71D017002F402A4211D026000E
:10316000851CAE400195B4465D464E46AE59654657
:103170002E4206D1019D434EED083C353F02AD0085
:10318000AF511D0B59D017002F402A420AD02600FC
:10319000C51CAE400195B4465D464E46AE596546E7
:1031A0002E424ED01D0C48D017002F40BC462A425C
:1031B00009D00126071DBE40B2464E46304DAD59DE
:1031C0005646354245D01D0D37D016002E40B44628
:1031D0002A4209D00126471DBE40B2464E46284D20
:1031E000AD59564635423ED01D0E26D016002E4013
:1031F000B4462A4210D00126871DBE40B2464E4634
:103200001F4DAD595646354206D16646FD083C3540
:1032100037061C4EAD00AF511B0F0730002B0CD0F2
:103220004D465E467759250085402F4205D1C0089E
:10323000144D3C301B0780004351202900D053E738
:1032400046E7019D0F4EED083C353F03AD00AF5101
:10325000A8E765462D04AC466646FF083C37BD002E
:10326000084FEE51AFE76646FD083C353705054E81
:10327000AD00AF51B8E7C046E02200203041014028
:1032800034E5002000400140094A10B5944640242E
:10329000830063441A68C000624080341440802276
:1032A000520113431C60034B9C466044416010BDB7
:1032B00004C0014000400140074B80009C46604430
:1032C0000368C90092000A435A400C231A40802325
:1032D0005B0103431A60704704C00140084B800043
:1032E0009C466044002905D0802302229B010343B1
:1032F0001A607047C02302229B0103431A60F8E75B
:1033000004C00140D0231B061B6830B5050058429D
:1033100043412F205B4283430D48EC08844607203D
:1033200028408000814020000A4D3C3063448000EA
:10333000A40041511B19002A04D08022920113439A
:10334000196030BDC022920113431960F9E7C046ED
:103350003041014000400140F8B51D00D0231B065C
:103360001C680600604244412F2064428443274881
:10337000F708844607203040800081403800244E02
:103380003C3064448000BF008151E419002A11D010
:1033900080229201224311601C681E4EA400A35992
:1033A000002B15D0002D25D0A55101210D2000F0B6
:1033B0006FF9F8BDC0229201224311601C68154EBE
:1033C000A400A359002B0CD0002D18D0A551F0E774
:1033D000002DEAD000220D200F49A55100F0BAF9C6
:1033E000E3E7002DE5D000220D200B49A55100F0A8
:1033F000B1F9DEE70D20084900F0A6FAD4E70D2068
:10340000054900F0A1FAA551D3E7C046304101407B
:1034100000400140E02200203D300010D023F0B5F4
:10342000C6461B0698461B680C4F9B001600FA58B0
:1034300004000D0000B5104209D1290014430D20ED
:103440003200FC5000F086F980BCB846F0BD01F0B7
:1034500015FE43461B689B00FA58EEE734E5002052
:1034600010B504000D2000F06FFAD0231B061B6876
:1034700002499B005A58A2435A5010BD34E500201F
:10348000084B80009C466044002905D080234022E0
:103490009B0103431A607047C02340229B010343F2
:1034A0001A60F8E704C001400123D02283401206CD
:1034B00093629361094A40219446830063441A68E9
:1034C000C0004A40803111408022520113431960EC
:1034D000034B9C46052360444360704704C0014091
:1034E00000400140024B18688007C00F7047C0467B
:1034F00000C00640EFF3108072B6034A1368002B39
:10350000FCD0BFF35F8F70472C0100D0BFF35F8FFB
:103510000022024B1A6080F3108870472C0100D003
:1035200070B5EFF3108C72B60D4D2B68002BFCD0EC
:10353000BFF35F8F0724CB08C618C05C01230C4083
:10354000A3401C000440034207D118433070BFF36E
:103550005F8F2C608CF3108870BD100001F076FD39
:103560002C0100D0F8B54746CE46884680B5EFF32B
:10357000108C72B6214D2C68002CFCD0BFF35F8FED
:103580009A422CD8D4080727055D06190124174054
:10359000BC402C421FD007210127894609E0D408EE
:1035A000055D06194C4639001440A1400C00294223
:1035B00011D001329342F2D201204042BFF35F8F1B
:1035C00000220E4B1A608CF3108800280FDBC0BC61
:1035D000B946B046F8BD254310003570EEE7BFF39D
:1035E0005F8F00232B608CF31088012040424346FC
:1035F000002BECD0089801F029FDC0462C0100D02A
:1036000030B5EFF3108C72B60A4C2368002BFCD057
:10361000BFF35F8F072301220B409A40CD08435D23
:1036200093434355BFF35F8F002323608CF31088CF
:1036300030BDC0462C0100D00021044B044ABFF32A
:103640005F8F02C39342FAD17047C046000100D099
:10365000800100D0044A1078431CDBB2172B00D93C
:10366000102313707047C0469A0F002010B5064B08
:10367000064C82B00100009318221F232000FFF7A0
:1036800071FF02B010BDC0460C2B0210F0220020CA
:1036900001238340002904D0034A1360034A1360C6
:1036A0007047034A1360FBE780E200E000E100E0BE
:1036B00080E100E001238340014A13607047C04667
:1036C00000E200E0084B10309B688000C358002BDC
:1036D00007D0064A00209B1A2F229A424041C0B2CE
:1036E00070470020FCE7C04600ED00E09C0F002082
:1036F000024B10309B688000C058704700ED00E01E
:1037000070B50D00EFF3108672B60F4A1368002BE8
:10371000FCD0BFF35F8F0D4B10309B6884001B59AA
:103720000B4A934203D09D4201D001F0A7FC074B06
:103730009B681D51BFF35F8FBFF35F8F0022024B69
:103740001A6086F3108870BD240100D000ED00E0FF
:10375000CD010010F0B557464E46DE464546E0B571
:1037600085B0060000911700EFF3108B72B66A4A1D
:103770001368002BFCD0BFF35F8F0025674B5D57AC
:103780009A46002D00DAA9E06B00654C01935B19A5
:103790009B009846A146C1444B4652469B79103641
:1037A0001370604BB6009B6899590B1B2F2B33D9B4
:1037B0005D4B994200D0ACE0019B42469C465B4B7E
:1037C0006544AD0063535A4B0232A218043B9B1A66
:1037D0001B05584A5B0D651913436B80564B01213D
:1037E000AB80FF23AB71009BEF71AB604B460B438B
:1037F00019004C4B9B689951BFF35F8FBFF35F8FEC
:103800000022454B1A608BF3108805B0F0BCBB4614
:10381000B246A946A046F0BD01200A008243D379F2
:103820008C46BB4231D84546130044491B1B5B41C3
:103830005943090D3D4B63533D4B02356519043B1C
:103840005B1B1B053B4D5B0D2B43AA464D466B8016
:103850000425AC465546E044131F44441B1B1B057E
:103860005B0D1D434B46997100999D8099604946B7
:10387000DF71334B01431360BBE75800C018800071
:103880002018C179B9422FD902000623D356002B44
:10389000F3DA02932B4B61460393131D9A460423DC
:1038A0005B429C46E14450464B461B1A1B055B0D90
:1038B0009C46204B9571984663464046034393804F
:1038C000019B5A199200039BA418A380029B1C4AD7
:1038D000A371009B2260E771A3608AE701F0CEFB31
:1038E000002553465D574FE7908802934005131D0E
:1038F0009A46031561469C464046D44463460430CC
:103900002018181AE0230005400D1B0218430390ED
:10391000C5E701F0B3FB4FE7240100D0D7EA002050
:103920009C0F002000ED00E0CD01001000A1FFFF82
:10393000CC0F002000E0FFFF01BDFFFFAAAA00009E
:103940000148804701BD0000F0B5DE4657464E46AF
:103950004546E0B50C0083B0EFF3108872B65D4ABF
:103960001368002BFCD0BFF35F8F5B4B5B499A68F9
:10397000030010339F00D5598D4239D0A5424AD05B
:10398000574EAA1B2F2A33D80122924682409146D5
:103990004846544A1268104001904846524A106006
:1039A000BFF35F8FEFF305829346002A35D0934231
:1039B00001D001F063FB2A0053469A439068844289
:1039C00008D175E04B005B189B00F3189868A04283
:1039D00034D01A00062151560029F3DA844253D01C
:1039E000019B002B26D04A46404B1A603D4B1A6083
:1039F000394B9B68DD51BFF35F8FBFF35F8F0022B0
:103A0000344B1A6088F3108803B0F0BCBB46B24652
:103A1000A946A046F0BD0D00EAE72A0053469A43A6
:103A200090688442D6D1062010561300002809DA87
:103A30000D0031E04A462C4B1A60D9E70620185693
:103A4000002822DB42001118890074188A46A168F8
:103A50009960E179D971062161569971002925DBB8
:103A6000A488F11A6405241554440919E0240905B1
:103A7000490D24022143998013181D4A9B00117897
:103A8000F31899711070ABE713005946002914D14F
:103A9000FF3191711749918015490A789A71164A38
:103AA0009B1B5B415A43120D0A7099E71349E2E7E9
:103AB0000620105613000028C4DA114A1149D21A00
:103AC000083A5002400D014399800F4952080A43B9
:103AD000DA8085E7240100D000ED00E0CD01001080
:103AE0009C0F002000E100E080E100E080E200E0C7
:103AF000D7EA002001BDFFFFAAAA000001BD000017
:103B0000D60F002000F0FFFF00F8FFFF032310B5E1
:103B10000400074A18409446C0009C43FC3383408D
:103B20006444226881409A4313000B43236010BD14
:103B300000E400E070B5EFF3058101240443EFF3E6
:103B4000108C72B6214A1368002BFCD0BFF35F8F34
:103B50001F4B05001F4AED1A6D416A43120D1E4DA1
:103B60008900AE6852B27658A6421CD0062159563A
:103B700091421CD012215956914222D01E215956F1
:103B8000914220D02A2159560324914210D0134B40
:103B900019781A708171BFF35F8F00220B4B1A6086
:103BA0008CF3108870BDAB680D4C5C50EFE70024BF
:103BB0006100091989005B18FF21997109499980F1
:103BC000E5E70124F4E70224F2E7C046240100D02F
:103BD0009C0F0020AAAA000000ED00E0D7EA002018
:103BE000CD01001001BDFFFF054B064A1360064AD8
:103BF000136053609360D3601361536193617047A6
:103C00008080808000E400E004E400E01F2110B523
:103C1000091A0248FFF7F4FC10BDC046E4EA002090
:103C200010B5084B084C82B0010000930022052318
:103C30002000FFF797FC002801DB1F23181A02B0B1
:103C400010BDC046282B0210E4EA002070B5040025
:103C50000E001500FFF7FEFC0100200000F006F842
:103C6000A680E580BFF35F8F70BDC046024B9C46C7
:103C700061448900016070474000003410B50400C1
:103C8000FFF7E8FC01002000FFF7F0FFFF2323719E
:103C9000BFF35F8F10BDC04610B50400FFF7DAFC1C
:103CA00001002000FFF7E2FFFF23A380BFF35F8F37
:103CB00010BDC04610B504000120FFF7D7FC034B30
:103CC000C3189B002360BFF35F8F10BD400000341A
:103CD000034B9C46614489000160BFF35F8F7047CE
:103CE0004000003483680B4810B584466144624448
:103CF0001201090159189B185C684A680120944216
:103D000001D802D00020C0B210BD1A680B689A42D8
:103D1000F9D8F7E7FFFFFF0F0A4B1968EFF31080A0
:103D200072B60A68002AFCD0BFF35F8F1B68BFF32E
:103D30005F8F00221A6080F3108840BF00200021AE
:103D40007047C04658E60020F8B5574645464E46EF
:103D5000DE46E0B598460CAB1C780DAB1B7807002F
:103D600091469A460568002C59D1AC7B002C3BD07B
:103D7000660029683619033E89194B78AB73002B0E
:103D800000D1EB7300238B704B700B702D4BE2183E
:103D9000BB6812019B184A461A6042465A600A9A4A
:103DA0009A600B9ADA6000238B704B700B706B7B00
:103DB0009B46002B26D022006B685946A86898477E
:103DC0005B465B005B442A68033B002812D05846E0
:103DD0009619B070D118D35C002B00D073705B467D
:103DE0000C706B735C450ED0F0BCBB46B246A94666
:103DF000A046F8BDD3189C709119925D002A1CD181
:103E00005B460B706C734A464346387D00F0F0FB0E
:103E1000051E0AD10E9B002BE6D01D70E4E766005C
:103E200029683619033E8919B0E75346002BF1D1B2
:103E30002100386800F0F4FDECE75A705B460B7027
:103E40006C73E0E7FFFFFF0FF0B5DE4657464E46C6
:103E500045460023E0B58BB00893684B8200D458E8
:103E600000239B46099000F063FB02000B00606892
:103E7000EFF3108A72B6564601680029FCD0B246AC
:103E8000BFF35F8F21684F7B8C46002F2ED0A56833
:103E90005B49A94679180901894449460868496877
:103EA00005000E00AD1A9E41002E5FDD02000B00E2
:103EB000099800F09DFB00230022994600230692FA
:103EC0000793002398466368BFF35F8F5A461A60D2
:103ED0008AF310884346002B12D10028C3D10BB0BF
:103EE000F0BCBB46B246A946A046F0BD0023002266
:103EF0009946002306920793002300209846E2E7A4
:103F0000089B494618023843C047626805000E0006
:103F1000EFF3108A72B61368002BFCD0BFF35F8FEB
:103F2000002E41DB2B00334302D02369002B56D1F6
:103F30002368D97B002905D01A6848004118521817
:103F4000033A57709A7B002A00D19F73DF73E268AF
:103F5000013FD35D0133D3555B4623616368BFF3F3
:103F60005F8F5A461A608AF310887CE7002E02D1D0
:103F7000002D00D09AE70021604600F0CFFC4B46B0
:103F80001A685B68069207934B469B6898464B46B7
:103F9000DB689946E368DB19013B1B7808931B0239
:103FA0000343236100208EE72369002BC0D0069ACB
:103FB000079B8021521BB34109068B4202D3012289
:103FC000104B524200210491013103914946019165
:103FD0004146200002970091FFF7B6FEBCE700F0D3
:103FE000A7FA2A00330012184B41802109068B42A0
:103FF000E8D30122034B5242E4E7C04664D50020D7
:10400000FFFFFF0FFFFFFF7F10B5144C6368002B0D
:1040100004D00A211248FFF729FE10BD2300114ADF
:104020001021206800F096FB032000F075FA0320B1
:1040300000F046FB03200C4900F094FAFFF70AFB5E
:104040000A4B9C4603232375D0231B061B68604440
:104050006375074B80006060DC60DAE7E40F0020E6
:1040600058E60020E53C0010493E001040000034B6
:1040700064D5002000487047E40F0020F0B5574693
:104080004E464546DE46E0B585B0019310AB1B7841
:104090000600039300239A46984600927268EFF355
:1040A000108B72B61368002BFCD0BFF35F8F35689E
:1040B000AC7B002C00D16EE067002B683F19033FFA
:1040C000DB195A78AA73002A00D1EA73484AA1186A
:1040D000B2680901521800980199106051600E9958
:1040E00091600F99D16042469A705A701A706B7B3A
:1040F0009946002B00D16BE022006B684946A86806
:1041000098474B465B004B442A68033B002856D037
:104110004846D719B870D118D35C002B00D07B70FB
:104120004B460C706B734C4553D0F3681B19013B25
:1041300018787368BFF35F8F42461A608BF310885C
:104140005346002B08D10002204305B0F0BCBB460B
:10415000B246A946A046F0BD039B002B46D00E9B5D
:1041600000200F99984703000B433FD004000D1E19
:104170001ADA009A019B121BAB4100920193802234
:104180001206934204D301231A4C5B42009301941C
:10419000039B9A4682E77368BFF35F8F1C608BF3C3
:1041A000108801204042D0E700F0C2F980220019B7
:1041B00069411206009001919142E9D3E3E7D318D7
:1041C0009C70D119D25D002A00D05A704B460B70FA
:1041D0006C73307D009A019B00F00AFA8246002839
:1041E000A3D02100306800F01BFC9EE70020ACE764
:1041F000FFFFFF0FFFFFFF7FF8B5040000292FD05E
:104200004268EFF3108572B61368002BFCD0BFF341
:104210005F8FFF222068CFB2437B0A40BB4213D09E
:1042200003685600B6189B19033B9B78002B0BD1F3
:104230002269914216D000206368BFF35F8F00228D
:104240001A6085F310880CE0E6680B0AB218013A90
:104250001278DBB29A42EED1390000F0E1FBEBE7D5
:104260000020F8BD2361E6E7407D7047F0B504000B
:104270000D0006267642F717C64636196F4100B57F
:1042800084B08F4214D811D000F052F932003B00B4
:10429000121A8B41002B15DC002B3ED02000290088
:1042A00000F050F904B080BCB846F0BD8642EBD9AE
:1042B0000026002700F03CF932003B00121A8B4127
:1042C000002BE9DD002302930193154B320000938C
:1042D00014483B00FFF7D2FE0028DFDB002398469E
:1042E000BC46114A114F7B6A9C4504D8B96A8E427C
:1042F000D4D99C45D2D11168EFF3108072B60B6807
:10430000002BFCD0BFF35F8F1368BFF35F8F414674
:10431000196080F3108820BFE5E7002ABED0D1E7FE
:10432000193D0010E40F002058E600200040054031
:1043300070B504000D0000F0FBF8802300196941FE
:104340001B06994202D3012002494042FFF78EFF2B
:1043500070BDC046FFFFFF7F70B5060000F0E8F8B3
:10436000FA2204000D00002330000021920002F028
:10437000A1FE8023001969411B06994202D3012046
:1043800002494042FFF772FF70BDC046FFFFFF7F4A
:10439000F0B5EFF30583CE46474680B505000C0027
:1043A00085B0002B12D02A4A0020536AA34203D3BF
:1043B000926A0130AA4204D305B0C0BCB946B046E7
:1043C000F0BD1B1B5A1E9341D8B2F5E7214E029354
:1043D0000193214B0200009330000B00FFF74EFECB
:1043E000031EE0DD20BF7168EFF3108772B60A6824
:1043F000002AFCD0BFF35F8FDAB29446FF22306808
:104400001A40417B61450FD00168894651008846BA
:1044100049469044414403398978002904D13269DE
:10442000934209D1316107E0F1681B0A8A18013A09
:104430001278DBB29A4207D07368BFF35F8F002215
:104440001A6087F31088AEE7614600F0E9FAF3E7F7
:1044500000400540E40F0020193D0010F0B5EFF3D7
:104460000582D6464F4646461000C0B51038EFF3D9
:10447000108872B6214C2368002BFCD0BFF35F8FED
:104480000123190081401E4D1F006963AA461D4D7E
:1044900029601D4D2E78AC463500C5402F402B427B
:1044A00015D053465F6A194B8500EB589F4218D3CD
:1044B0006246174B8E43EB581670BFF35F8F002296
:1044C000226088F31088002B06D0984704E0BFF3E1
:1044D0005F8F276088F31088E0BCBA46B146A846D3
:1044E000F0BD0C4B92009C46624413681360BFF30E
:1044F0005F8F0023236088F31088EDE7280100D048
:10450000004005403C700540E3EA002068EA0020D6
:10451000B8200020D03F054010B5034B0100180023
:10452000024AFEF7FDFF10BDCFEA0020442B021027
:10453000034B596A0A00986A596A8A42FAD170474D
:1045400000400540064A536A9942FCD807D1044B03
:1045500002E05A6A914202D19A6A8242F9D37047C4
:104560000040054070B504000D00EFF3108672B6F0
:104570001A4A1368002BFCD0BFF35F8F002D1BD0AD
:104580002000FFF7B5F8164981420AD02000FFF756
:10459000B7F801212000FFF77BF80123A340114A5F
:1045A0001360114BA400E550BFF35F8F00220B4B4B
:1045B0001A6086F3108870BD0121A1400A4BA20049
:1045C000D5500A4B20001A788A4305491A70FFF724
:1045D000BBF900212000FFF75BF8E5E7280100D0D8
:1045E0005D44001038600540B8200020E3EA002058
:1045F000F0B54F46D6464646C0B507002B4C616A1B
:104600000D00A66A616AA942FAD18B4208D805D08A
:104610000120E0BCBA46B146A846F0BDB242F7D987
:10462000EFF3108A72B6224801680029FCD0BFF36C
:104630005F8F0125BD401F491C4C8846097889467B
:104640002943C9B28C46414660460870391D89002D
:1046500065630A511849B8004350216A0020294275
:1046600019D0616A0800A66A616A8142FAD18B4258
:1046700019D801D1B24216D8CC450BD00B4B1F2212
:104680001D625D6301233A4093400C4A1360434628
:104690004A461A700120BFF35F8F0022044B1A6054
:1046A0008AF31088B5E70020F5E7C04600400540D2
:1046B000280100D0E3EA002068EA002080E200E060
:1046C000EFF3108C72B60A490B68002BFCD0BFF3D5
:1046D0005F8F01238340074A0748136202789A4399
:1046E0000270BFF35F8F00230B608CF3108870475C
:1046F000280100D000400540E3EA002070B5060024
:104700000D00140000291DD0002A12D073688068A3
:10471000984762006B0012195B193168033A033B3A
:10472000002808D08A189570C818CB5C002B0BD1D4
:104730000470280070BDCB189C7088188A5C002A11
:1047400005D105702000F5E753700470F1E75A7049
:104750000570F7E710B583600023CCB243730133D3
:10476000426004738373C4730068421C012C05D932
:104770000133DBB2137003329C42F9D1FF230B40AB
:104780005A00D318C01800230338437010BDC04628
:1047900070B505000C1E07D0630001681B19033BB0
:1047A000CB185A78002A01D1200070BD5000801823
:1047B0000338091800204E784870210058702800EE
:1047C000FFF79CFF310004002800FFF7E1FF06001F
:1047D000002C20D00028E7D0320021006B68A868A8
:1047E00098477200630092191B192968033A033B2A
:1047F000002808D08A189470C818CB5C002B00D011
:1048000053700670D0E7CB189E7088188A5C002A17
:1048100000D05A7004703400C6E7C046F0B5574661
:104820004546DE464E46E0B50D006F0001687F1933
:10483000033F0400C85D83B00192CA19002850D01C
:1048400043001B18033BCB185E78B446002E1AD1E8
:10485000019E002E42D0E67B002E04D073009B19EF
:10486000CB18033B5D70A37B002B00D1A573E573D0
:1048700000282FD10023537003B0F0BCBB46B246D2
:10488000A946A046F0BD72006244033A8A185178E6
:10489000884600215170894659703200010020007D
:1048A000FFF72CFF43468246002B07D05B002168B0
:1048B0004344033BCB185A78002A16D1424651464E
:1048C0002000FFF71BFF2168019BCA19002BC2D1F2
:1048D0000028CFD043001B18033BCB180021997050
:1048E000C8E7019B002BB6D1C4E7500080180338FD
:1048F0000918487883464846487058704146200059
:10490000FFF7FCFE594680462000FFF741FF414675
:1049100002002000FFF7F2FE8046CFE7F0B55746D1
:104920004546DE464E46E0B583B00191457B040026
:104930006F0000687F19033FC15DC219002952D082
:104940004B005B18033BC3185E78B446002E1CD1A5
:10495000019E002E44D0E67B002E04D073009B19EC
:10496000C318033B5D70A37B002B00D1A573E573D7
:10497000002931D1002328005370617303B0F0BCCB
:10498000BB46B246A946A046F0BD72006244033A57
:10499000821850788046002050708146587032004E
:1049A0002000FFF7ABFE43468246002B07D05B009A
:1049B00021684344033BCB185A78002A17D142465A
:1049C00051462000FFF79AFE019B01002068C219A2
:1049D000002BC0D10029CDD04B005B18033BC3187E
:1049E00000209870C6E7019B002BB4D1C2E75000AD
:1049F000801803380918487883464846487058702C
:104A000041462000FFF77AFE594680462000FFF716
:104A1000BFFE414602002000FFF770FE8046CEE751
:104A200070B5050000292CD0437B8B422ED04C0062
:104A300000686418033C0419A278002A21D05300AE
:104A40009B18033BC25CC6188A4202D11BE0002AB5
:104A500008D053009B18033BC3185A788A42F6D1FA
:104A600062785A70002301222800A3706370FFF758
:104A7000D5FE697B02002800FFF740FE6873012025
:104A800000E0002070BD63783370EBE7012219006D
:104A9000FFF7C4FEF2E7C04610B50C2082B000F06C
:104AA000B7F9FEF71FFD002810D08B4B8B488B49C0
:104AB0008B4A186059609860D96018615961986193
:104AC000D961186259625A6202B010BD854CA06764
:104AD00000F0F4F90122844B1A60636C012BFCD1C5
:104AE0000322824B1A607F4A936B012BFCD1013366
:104AF00001217F4A7F480093043300F037F90523F2
:104B00007D4A009301217D4800F030F97C4B5A68C2
:104B1000FF2A02D8802252005A608022734B6E4CCA
:104B200012011A602169002907D0606901F010FFA5
:104B3000013043001B18033BFDD2E022704B71484B
:104B400019680A40026002221968514001320A4085
:104B5000042102609A681142FCD080216A4A09014E
:104B60001160802252005A60684B2361684B59687B
:104B7000FF2900D85A60032201215B4B1A60644A66
:104B800093681942FCD0E023106803406148036039
:104B9000126803234A40022113405D4A0360936870
:104BA0001942FCD080215C4B0901196080215B4BCC
:104BB0004900516063615A4B5A68FF2A00D8596016
:104BC0008022584B12011A60E169002907D0606900
:104BD00001F0BEFE013043001B18033BFDD2E02371
:104BE0004F4A11680B4050490B6080214F4B09011F
:104BF00019608021394B49005160E3614C4B5A6880
:104C0000FF2A00D8596080224A4B12011A60216A9B
:104C1000002907D0606901F09BFE013043001B189A
:104C2000033BFDD2E023424A11680B4042490B602E
:104C30008021424B0901196080235B005360802270
:104C4000264BD20223623E4B5968914200D25A60F1
:104C500080223C4B12011A60616A002907D060690A
:104C600001F076FE013043001B18033BFDD2E02328
:104C7000334A11680B4034490B608021334B0901E2
:104C800019608023DB025360154B6362304B5A6816
:104C9000FF2A02D8802252005A6080222D4B120136
:104CA0001A60A169002907D0606901F051FE013046
:104CB00043001B18033BFDD2E023254A11680B403B
:104CC00025490B608021254B0901196080235B0079
:104CD0005360124BA361F7E648180020006CDC0219
:104CE0001BB70000008000403CB0004030B00040E6
:104CF000002F685900800240008C864700C00240A7
:104D0000308000403090004030A00040001BB700D1
:104D10003C8000403C9000403CA00040405973075C
:104D20005480004054B000405490004054A00040D3
:104D30006080004060B000406090004060A0004093
:104D40006C8000406CB000406C9000406CA0004053
:104D50004880004048B000404890004048A00040D3
:104D6000014B8000C058704748180020F8B5040077
:104D700022481E0017000D0001F0EAFD0100380076
:104D800001F0E6FD069B36041B031E432368002B3F
:104D900022DB1B4B1B49E3185A1E934180229201D0
:104DA00094465B421B0B184A1B0363441360174A6B
:104DB00013601F008A689743FBD1C022231D920114
:104DC0001A4321232560A06013602368002BFCDABE
:104DD0000823E6601360F8BD3F2322681340AB420E
:104DE000D7D1A3681B051B0D8342D2D1EE22E36805
:104DF000D2021340B342CCD1EDE7C046001BB7004E
:104E00000040FDBF00C0004000E0004000F0004056
:104E10008023024A9B000343D36270470080054011
:104E200010B580241C4BE4051C6000281AD0012317
:104E30001A4C18431A4BDC611A4C44401C625962EC
:104E400098628021144BC9051960174817490860FA
:104E5000E021C9041960002A07D18022144B1206F0
:104E60001A6010BD0E4BD861EBE753019B1A9B00F3
:104E70009A18802312015B049A4209D213000D494B
:104E80000B60074B5A608022094BD2051A60E8E795
:104E9000094B1A00F3E7C04600B00540D3C007B085
:104EA000008005402D3FF84FFCFF01000820014025
:104EB00000A0054054390020FFFFFF00AA23064A46
:104EC0001B0113602F230549D360054B19605368FC
:104ED000002BFCDA7047C0460040024000B0FA00E8
:104EE000006002402C4B2D4A70B51A602C4A2D4BA5
:104EF0002D491A6014008B689C43FBD12B4D2C4E1E
:104F0000B54208D2013E761BB60808CD984723006B
:104F10000134B342F9D1FFF7BFFD264A214B1A6095
:104F2000214A9368DB43DB01DD09002BF9D14022E4
:104F3000214B224C224E9A675A671A67DA66B442AE
:104F400008D223682000002B20D00834FEF7A4FEEE
:104F5000B442F6D31B4C1C4EC022B168200002F0B4
:104F60007FF9B460FEF768FBFEF73EFEFFF74CF8F2
:104F7000164C174EB44208D2013E361BB60808CC78
:104F800098472B0001359E42F9D170BD0834FEF7D9
:104F900075FEB442D5D3DDE700E00040BFCDFBFE97
:104FA000FE7F3C0000F0004000C0004010180020D0
:104FB00020180020FFFFFF0100F00140081800202A
:104FC000101800200000002000ED00E02018002054
:104FD0002818002000BEFDE7094A030010680028D9
:104FE00005D00849C3188B4207D81360704706489C
:104FF0000449C31810608B42F7D901204042F5E7FD
:10500000DC31002000000420E8EA002010B5FFF7A2
:10501000E1FFC04630B50D0083B01900002A0BD067
:10502000074B084C0192009302002B00200001F076
:10503000EFFB0120FFF7CEFF034B1A00F1E7C0465C
:10504000682B0210782B02107C4402100FB400B5BC
:10505000084883B002F0D2F9049B002B07D005A9C1
:105060001800019101F0F4FB034802F0C7F9012098
:10507000FFF7B0FFA82B02102847021010B5014817
:10508000FFF7E4FFB82B02109A4200D28854704711
:105090007047C046F8B55746DE464E464546E0B531
:1050A00099460A9B07009A460D9B884693460B9C9F
:1050B0009B073BD10C9B9C423DD21E1B0B941500C1
:1050C0000C005E442A004B46013521002020B847E1
:1050D000B542F7D1A0460B9C002C20D0454636198E
:1050E0005346321B013C185D29004B46B847002C43
:1050F000F6D12B00350098460D9B9B070FD55B46DC
:10510000EC1A0C9BA3420AD9464698462A004B4605
:10511000310020200134B84701354445F6D328003A
:10512000F0BCBB46B246A946A046F8BD1600150025
:10513000002CD3D1E0E71600002CCFD11500EEE70C
:10514000F0B54F464646D646C0B584B098460EAB3D
:105150001B7894469946129B0D9C109F119E9A07AE
:1051600025D4002E65D1BC4221D201221A4092469C
:10517000202C00D1E9E00C9A551E302202E0202CB0
:1051800000D17BE001342A55A742F8D85246002AC4
:105190000DD0B4420BD20C9A551E3022202C02D1D5
:1051A00071E0202C2DD001342A55B442F9D1DA0611
:1051B0003CD55A052ED4002C28D10F9A102A00D1A4
:1051C000B6E0022A00D1BCE030220C9C22700124FF
:1051D0004A46002A65D15A0700D499E02B220C9D3B
:1051E0002A55013403930C9B624600930296434672
:1051F0000194FFF74FFF04B0E0BCBA46B146A846A1
:10520000F0BD2024DA06EDD55A0503D4A74266D0B6
:10521000B44264D00F9A102A71D0022A57D0202CA1
:10522000E0D02200013430250C9FBD54202CD9D071
:10523000CEE7012215001D40AA461A4236D04A4642
:10524000002A4AD10C321A4247D1BC42A1D2202CAA
:1052500091D1202E17D82024DA06C3D55A051BD4A5
:10526000202F01D0202ED5D11F220F9D102D6FD0C1
:10527000022DD8D162250C9FBD54D0E75246002A9A
:1052800079D0202EBDD92024DA06ABD55A0503D417
:10529000202FE9D0202EE7D00F9A102AA2D1202467
:1052A000A0E72D220C9D2A5501349BE7BC4200D378
:1052B0007DE7202C00D05EE7DA06F0D55A05EED463
:1052C000202F62D0202EEAD134001F22CDE7202CDF
:1052D00000D187E722000134CCE7013EB5E7621E2A
:1052E000012CC2D10F9A102A00D06AE79A063BD54A
:1052F00058220C9C2270283A6270022468E79A06B1
:105300000ED4202CCBD078220C9D2A55013486E770
:105310001A0700D466E720220C9D2A55013461E764
:10532000202CBCD058250C9A12191570013476E740
:105330009A0608D558220C9C2270302262700224F2
:1053400046E76032F7E77822F5E7002A83D1B3E732
:10535000A21E013C9D0603D478250C9FBD5460E736
:1053600058250C9FBD545CE778220C9C2270483A6B
:10537000627002242CE7DA0600D433E75A058BD496
:10538000202F00D044E71F226FE73C001F226CE76C
:1053900010B5002800D110BD01F0E4FFFBE7C046C6
:1053A0000B0010B5002802D049681B68984710BD53
:1053B000F0B557464E464546DE46E0B599B08246C2
:1053C000894690460893229A239B1000190001F009
:1053D00080FD002800D0CDE0229823990122D94BEE
:1053E000524201F071FD002800D0C3E022982399B9
:1053F0000122D54B524201F051FD002800D0B9E006
:10540000229823990022002301F048FD002800D0B3
:10541000F1E1229E239F8023269ADB001A400D9201
:10542000269A1A4201D1062324938023269A1B012F
:105430001A403B0093460996334300D0B3E0002A5C
:1054400000D0C2E1002300240A930B94002304251A
:105450000993259B0024AB4200D95C1B0223269AAA
:105460001A400C92269A134203D06B426B415B4266
:105470001C40099B002B07D00A9A0B9B3000390077
:1054800001F0ABFC06000F002298239900220023B4
:1054900001F004FD002803D0802109067B181F00BD
:1054A000269AAA4B009601971340089E0493249BCA
:1054B00003940293424633004946504600F0AAF94D
:1054C0000400002D67D02020269A49460240130090
:1054D0005A4253415B42621C18400A923300220038
:1054E0004530D047099A6F1ED317D4185C40D30FAC
:1054F0009B46002501E0202D13D008AA94461F23C7
:10550000200063440A2101355E1901F021FA30318F
:10551000317020000A2101F01BFA26000400092E38
:10552000E9D805230693002304930A3303935B46CB
:10553000089E029310AB0A9A0093494633005046E6
:1055400005970195FFF7FCFD0C9A0400002A22D074
:105550004246851A259AAA421DD9B04657461600DA
:1055600022004346494620200135B8470134AE4267
:10557000F6D810E0269B42460493259B49460393A8
:10558000249B50460293229B239C00930194089BEA
:1055900000F040F90400200019B0F0BCBB46B24650
:1055A000A946A046F0BD6A4B78009C46400D604479
:1055B00001F0A2FC674A684B01F029FC674A684B7E
:1055C00001F006FC674A3B031B0B1A4304000D0065
:1055D00009981100644B002201F0F5FB634A644B0B
:1055E00001F015FC02000B002000290001F0F0FB87
:1055F00001F09AFC099001F07FFC5E4A5E4B0400CA
:105600000D0001F004FC00225C4B01F0E1FB01F015
:105610008BFC5B4A5B4B29000C90200001F0F7FBF0
:1056200004000C980D0001F067FC574A574B01F03D
:10563000EEFB02000B002000290001F0C4FB040077
:105640000D0002000B000A940B9501F0E0FB040032
:105650000D000A980B9902000B0001F0B9FB002223
:105660000E900F914A4B2000290001F0B6FB00225A
:10567000484B01F0ADFB02000B002000290001F0B7
:10568000ACFB0022444B01F0A3FB02000B00200006
:10569000290001F0A2FB0A9A0B9B0D008021040057
:1056A000C905002001F08FFB02000B00200029003B
:1056B00001F08EFB02000B000E980F9901F08DFB9C
:1056C0000022284B01F084FB344B0C9C9C46644424
:1056D0002305002201F09BFB04000D0002000B00DB
:1056E000300039000A940B9501F0D8FB00285DD1F9
:1056F00023002A00C625099963318D42AD415946E0
:105700006D420435002900D1A3E6134363D0300075
:105710003900234A234B01F0CFFB002807D0002299
:1057200030003900204B01F0B9FB002853D1249BF5
:10573000002B00D18DE60D9B5A1E9341249AD31A5B
:10574000249386E6FFFFEF7FFFFFEFFFFFF7FFFFEA
:1057500001FCFFFFFB799F501344D33FB3C8608B1C
:10576000288AC63F0000F03F0000F83F61436F63A6
:10577000A787D23F71A379094F930A400000E03F09
:105780001655B5BBB16B0240EF39FAFE422EE63F2B
:1057900000002C400000244000001840FF030000DF
:1057A0002D431CEBE2361A3F80842E41099B0022D8
:1057B000013B09932000164B290001F00EFB0A0063
:1057C000010003000A910B9294E7002300240A933E
:1057D0000B9400230993249A099B9A4214DDD31A4F
:1057E000013B24938023269ADB001A4300230025E3
:1057F000269209932DE6802212069446229B1E00D3
:10580000239B63441F0006E600232493EAE7C04677
:1058100000002440F0B54546DE464E465746E0B50A
:1058200095B08B46904699461E9A1F9B0A90190088
:105830001000209D01F04DFB002800D0B0E11E9823
:105840001F990122C74B524201F028FB002800D0CB
:1058500037E11E981F990122C34B524201F034FBDD
:10586000002800D0A7E01E981F990022BF4B01F02E
:105870002BFB002800D088E01E981F990022BC4B0B
:1058800001F00CFB002800D07FE01E981F99002239
:10589000002301F003FB002800D0FAE000230B9363
:1058A0008023229C229ADB001C401A4200D102E194
:1058B000092D00D87CE106A98C462C001722002374
:1058C0003021093C62440133D154EF1A202B00D11E
:1058D00032E1A342F7D10022A44B069207931E980F
:1058E0001F9901F021FB050001F006FB02000B00EF
:1058F0001E981F9901F067FA069A079B01F087FA34
:105900000890099101F034FB060001F0F1FA020061
:105910000B000898099901F056FA0022954B08905F
:10592000099101F0D1FA002800D1D2E0013630000F
:1059300001F0DEFA069A079B01F0BEFA002801D0BA
:1059400000260135AA46002F00D098E0280001F07B
:10595000D3FA02000B001E981F9901F034FA854B10
:10596000002206000F0001F099FA0CAB9A460028BD
:1059700045D10022300039007E4B01F0A5FA002805
:105980003DD1EB073BD5013539E0229B42460493DC
:10599000219B594603930A981E9B1F9C02950093D6
:1059A00001944B46FFF704FD15B0F0BCBB46B24670
:1059B000A946A046F0BD229B5B0767D403226E4B2D
:1059C00022990192039121990291009342464B46FC
:1059D00059460A98FFF75EFBE6E706AA94461723A6
:1059E000280063440A2101341E1900F089FF303178
:1059F000280031700A2100F083FF051E76D0202C8C
:105A0000EBD10323229A1340012B1DD1219B002BA4
:105A10001AD00B9B002B00D0BBE0229A0C33134210
:105A200000D0B6E0219BA34200D887E006AB9C469D
:105A300017223023624404E02199013413558C422B
:105A400059D0202CF8D12024229B01940393219B30
:105A500002935346B9E706AA944617230A216344E2
:105A6000300001341D1900F073FF3031297030000F
:105A70000A21013F00F06CFF092E46D90600202CB8
:105A8000E9D155460CAB20249A46B8E704223B4B9B
:105A900096E71E9A1F9B0020002101F094F9012334
:105AA0000B938023229C229ADB001E901F911C40A6
:105AB0001A4200D0FCE60022314B062706920793DB
:105AC0000DE7229B0393219B0293042301932D4B0B
:105AD0007BE7002208980999264B01F0DFF900289E
